:020000040800F2
:1000000000020020490200084B0200084B020008D1
:100010004B0200084B0200084B0200084B0200088C
:100020004B0200084B0200084B0200086147000821
:100030004B0200084B0200084B0200084B0200086C
:100040004B0200084B0200084B0200084B0200085C
:100050004B0200084B0200084B0200084B0200084C
:100060004B0200084B0200084B020008514C0008EC
:10007000314C0008114C0008F14B0008D14B00082E
:10008000B14B0008914B00084B020008C14D00081D
:10009000514D0008E14C0008714C00084B0200086B
:1000A0004B0200084B0200084B0200084B020008FC
:1000B000E14A00084B0200084B0200084B0200080E
:1000C0004B0200084B0200084B0200084B020008DC
:1000D0004B02000881480008114900084B02000843
:1000E0004B0200084B0200084B0200084B020008BC
:1000F0004B0200084B0200084B0200084B020008AC
:100100004B0200084B0200084B0200084B0200089B
:100110004B0200084B0200084B0200084B0200088B
:100120004B0200084B0200084B0200084B0200087B
:100130004B0200084B0200084B0200084B0200086B
:100140004B0200084B0200084B0200084B0200085B
:100150004B0200084B0200084B0200084B0200084B
:04016000513B000807
:1001700072B6274880F30888264880F30988264805
:100180004EF60851CEF200010860022080F3148878
:10019000BFF36F8F04F094FE04F03AFB4FF055303C
:1001A0001E491B4A91423CBF41F8040BFAE71C4927
:1001B000184A91423CBF41F8040BFAE719491A4A20
:1001C0001A4B9A423EBF51F8040B42F8040BF8E771
:1001D00000201749174A91423CBF41F8040BFAE747
:1001E00004F026FE04F064FE134C144DAC4203DA16
:1001F00054F8041B8847F9E703F0BAFC104C114D82
:10020000AC4203DA54F8041B8847F9E704F048BE0F
:100210000002002000040020000000080000002070
:1002200000020020A8540008000400208C070020D1
:1002300090070020201300206001000864010008DE
:10024000640100086401000892E700F000F8FEE78E
:100250002DE9F04FC1F80CD0C3689D46BDE8F08F82
:10026000002383F311882846A047002004F088FA71
:10027000FEE704F0ADFA00DFFEE700004FF0FF0CF0
:100280001CEAD0521EBF1CEAD15392EA0C0F93EA2B
:100290000C0F6FD01A4480EA010C400218BF5FEACD
:1002A00041211ED04FF0006343EA501043EA511140
:1002B000A0FB01310CF00040B1F5000F3EBF49003A
:1002C00041EAD3715B0040EA010062F17F02FD2A3E
:1002D0001DD8B3F1004F40EBC25008BF20F0010021
:1002E000704790F0000F0CF0004C08BF49024CEA38
:1002F000502040EA51207F3AC2BFD2F1FF0340EACA
:10030000C250704740F400004FF00003013A5DDC3A
:1003100012F1190FDCBF00F000407047C2F100027B
:10032000410021FA02F1C2F1200200FA02FC5FEA68
:10033000310040F1000053EA4C0308BF20EADC70B2
:10034000704792F0000F00F0004C02BF400010F424
:10035000000F013AF9D040EA0C0093F0000F01F0D1
:10036000004C02BF490011F4000F013BF9D041EAF3
:100370000C018FE70CEAD15392EA0C0F18BF93EAF5
:100380000C0F0AD030F0004C18BF31F0004CD8D11F
:1003900080EA010000F00040704790F0000F17BFA6
:1003A00090F0004F084691F0000F91F0004F14D0EC
:1003B00092EA0C0F01D142020FD193EA0C0F03D144
:1003C0004B0218BF084608D180EA010000F0004047
:1003D00040F0FE4040F40000704740F0FE4040F422
:1003E0004000704780F0004002E000BF81F0004113
:1003F00042001FBF5FEA410392EA030F7FEA226CCB
:100400007FEA236C6AD04FEA1262D2EB1363C1BF5A
:10041000D218414048404140B8BF5B42192B88BFC9
:10042000704710F0004F40F4000020F07F4018BFEC
:10043000404211F0004F41F4000121F07F4118BF0C
:10044000494292EA030F3FD0A2F1010241FA03FCB4
:1004500010EB0C00C3F1200301FA03F100F000439C
:1004600002D5494260EB4000B0F5000F13D3B0F164
:10047000807F06D340084FEA310102F10102FE2AD3
:1004800051D2B1F1004F40EBC25008BF20F0010043
:1004900040EA03007047490040EB0000013A28BFE2
:1004A000B0F5000FEDD2B0FA80FCACF1080CB2EB65
:1004B0000C0200FA0CF0AABF00EBC25052421843E3
:1004C000BCBFD0401843704792F0000F81F4000188
:1004D00006BF80F400000132013BB5E74FEA41035B
:1004E0007FEA226C18BF7FEA236C21D092EA030FC7
:1004F00004D092F0000F08BF0846704790EA010F41
:100500001CBF0020704712F07F4F04D1400028BF6D
:1005100040F00040704712F100723CBF00F500004F
:10052000704700F0004343F0FE4040F40000704785
:100530007FEA226216BF08467FEA23630146420231
:1005400006BF5FEA412390EA010F40F48000704744
:100550004FF0000304E000BF10F0004348BF4042EA
:100560005FEA000C08BF704743F0964301464FF026
:1005700000001CE050EA010208BF70474FF0000382
:100580000AE000BF50EA010208BF704711F00043C3
:1005900002D5404261EB41015FEA010C02BF844693
:1005A0000146002043F0B64308BFA3F18053A3F5F2
:1005B0000003BCFA8CF2083AA3EBC25310DB01FA39
:1005C00002FC634400FA02FCC2F12002BCF1004FBD
:1005D00020FA02F243EB020008BF20F0010070474E
:1005E00002F1200201FA02FCC2F1200250EA4C00A2
:1005F00021FA02F243EB020008BF20EADC707047E8
:100600004FF0FF3C06E000BF4FF0010C02E000BFDE
:100610004FF0010C4DF804CD4FEA40024FEA410380
:100620007FEA226C18BF7FEA236C11D001B052EA36
:10063000530C18BF90EA010F58BFB2EB030088BFFC
:10064000C81738BF6FEAE17018BF40F0010070476B
:100650007FEA226C02D15FEA402C05D17FEA236C4D
:10066000E4D15FEA412CE1D05DF8040B704700BF94
:10067000844608466146FFE70FB5FFF7C9FF00282B
:1006800048BF10F1000F0FBD4DF808EDFFF7F4FF64
:100690000CBF012000205DF808FB00BF4DF808EDFD
:1006A000FFF7EAFF34BF012000205DF808FB00BF20
:1006B0004DF808EDFFF7E0FF94BF012000205DF842
:1006C00008FB00BF4DF808EDFFF7D2FF94BF0120F3
:1006D00000205DF808FB00BF4DF808EDFFF7C8FFEC
:1006E00034BF012000205DF808FB00BF4FEA400244
:1006F000B2F1FE4F0FD34FF09E03B3EB12620DD950
:100700004FEA002343F0004310F0004F23FA02F0B9
:1007100018BF404270474FF00000704712F1610F60
:1007200001D1420205D110F0004008BF6FF0004037
:1007300070474FF00000704742000ED2B2F1FE4FFA
:100740000BD34FF09E03B3EB126209D44FEA0023A0
:1007500043F0004323FA02F070474FF00000704767
:1007600012F1610F01D1420202D14FF0FF30704708
:100770004FF00000704700BF53B94AB9002908BFC5
:1007800000281CBF4FF0FF314FF0FF3000F06EB972
:10079000ADF1080C6DE904CE00F006F8DDF804E0D8
:1007A000DDE9022304B070472DE9F047089E0D46AD
:1007B00004468E46002B40F083808A42174647D974
:1007C000B2FA82F34BB1C3F1200105FA03FE20FA1D
:1007D00001F19F4041EA0E0E9C404FEA1748BEFBD4
:1007E000F8FC1FFA87F908FB1CE20CFB09F0210C4E
:1007F00041EA024290420AD9BA180CF1FF3180F066
:100800001881904240F21581ACF1020C3A44121A60
:10081000B2FBF8F008FB102200FB09F1A4B244EA95
:100820000244A14209D93C1900F1FF3280F0038152
:10083000A14240F2008102383C44641A002140EA9F
:100840000C401EB10022DC40C6E90042BDE8F08742
:1008500002B9FFDEB2FA82F3002B4FD18D1A0121CB
:100860004FEA124E1FFA82F8B5FBFEFC0EFB1C5538
:1008700008FB0CF0220C42EA0545A84207D97D1975
:100880000CF1FF3202D2A84200F2E98094462D1A00
:10089000B5FBFEF00EFB105508FB00F8A4B244EACD
:1008A0000544A04507D93C1900F1FF3202D2A0450A
:1008B00000F2D9801046A4EB080440EA0C40C0E7DF
:1008C0008B4208D9002E00F0B1800021C6E9000556
:1008D0000846BDE8F087B3FA83F100294BD1AB425B
:1008E00002D3824200F2B980841A65EB030301202F
:1008F0009E46002EAAD0C6E9004EA7E79F40C3F14E
:100900002002D1404FEA174EB1FBFEF01FFA87F8E4
:100910000EFB101124FA02F29D4000FB08FC2A4352
:10092000150C45EA0145AC4504FA03F409D97D19D3
:1009300000F1FF3180F08F80AC4540F28C800238AE
:100940003D44A5EB0C05B5FBFEF10EFB115C01FB74
:1009500008F995B245EA0C45A94507D97D1901F179
:10096000FF3274D2A94572D902393D44A5EB09057D
:1009700041EA004178E7C1F120078B4022FA07FCE9
:100980004CEA030C25FA07F44FEA1C4EB4FBFEF9BF
:100990001FFA8CF80EFB194420FA07F309FB08FA3A
:1009A0008D401D432B0C43EA0444A24502FA01F298
:1009B00000FA01F309D91CEB040409F1FF3048D215
:1009C000A24546D9A9F102096444A4EB0A04B4FB88
:1009D000FEF00EFB104400FB08FAADB245EA0444F9
:1009E000A24508D91CEB040400F1FF352DD2A24525
:1009F0002BD90238644440EA0940A0FB0289A4EBE9
:100A00000A044C45C6464D4619D316D05EB1B3EB29
:100A10000E0264EB050404FA07F722FA01F31F4300
:100A2000CC40C6E900740021BDE8F087314630466D
:100A30000CE78C46EBE61046FFE64345E6D2B8EB02
:100A4000020E69EB0C050138E0E72846D3E71146B2
:100A50008CE78146B9E7084673E7084649E7ACF1F9
:100A6000020C3D4413E702383C4424E7704700BFC2
:100A7000844641EA000313F0030349D1403A23D3EB
:100A80000B6803604B6843608B688360CB68C3600E
:100A90000B6903614B6943618B698361CB69C361F6
:100AA0000B6A03624B6A43628B6A8362CB6AC362DE
:100AB0000B6B03634B6B43638B6B8363CB6BC363C6
:100AC00040304031403ADBD230320BD30B68036008
:100AD0004B6843608B688360CB68C3601030103113
:100AE000103AF3D20C3205D351F8043B40F8043BE2
:100AF000043AF9D2043208D0D2071CBF11F8013BE6
:100B000000F8013B01D30B8803806046704700BFAB
:100B1000082A13D38B07B1D010F00303AED0C3F172
:100B20000403D21ADB071CBF11F8013B00F8013B9C
:100B3000A4D331F8023B20F8023B9FE7043AD9D313
:100B4000013A11F8013B00F8013BF9D20B78037030
:100B50004B7843708B7883706046704700000000CC
:100B600020494B68D1F8E4215B689A422CD01E489A
:100B7000824227D11D4AD1F8E801904222D1D1F812
:100B8000EC2193421ED0B1F8F0219BB29A4219D1C8
:100B90004FF6FF70164A30B4164D02F10E0412F8EB
:100BA000013B83EA102335F81330A24283EA002088
:100BB00080B2F4D130BCB1F8F231834214BF0220CC
:100BC0000120704702207047D1F8E8018242CED15F
:100BD000D1F8EC018242CAD1D1F8F0018242C6D1EB
:100BE00000207047C00E0020DE5A70ECC59C33F028
:100BF000A4100020A8510008000000000000000020
:100C00002023026983F31188012352680021D068F0
:100C100092688340136181F31188704700000000DF
:100C20000369DB69D9609A68D207FCD5D86880B2BD
:100C3000704700BF0000000000000000000000003E
:100C40002023026983F31188012352680021D068B0
:100C500092688340536181F311887047000000005F
:100C600010B42023026983F3118801235268002104
:100C7000D4689268A340536181F3118847F6E1710B
:100C80000269D369D9609968C907FCD50421D8687D
:100C9000D9609968CC07FCD543F60111D868D960B2
:100CA0009968C807FCD59F21D868D9609968C90799
:100CB000FCD5DB68202383F31188012352680021CF
:100CC000D06892688340136181F3118810BC70472B
:100CD00070B489B20469202383F311880123646806
:100CE0000025E668A468B340636185F3118847F680
:100CF000E1740069C369DC609C68E507FCD50424E5
:100D0000DD68DC609C68E407FCD54901013189B2EB
:100D1000DC68D9609968C907FCD5D968DA609A6837
:100D2000D207FCD5DB68202383F3118801234268B6
:100D30000021D06892688340136181F3118870BCF0
:100D4000704700BF0000000000000000000000002D
:100D500010B50446FFF784FF2269202383F311882E
:100D6000012352680021D06892688340536181F367
:100D7000118843F641212269D369D9609968C8076F
:100D8000FCD50021D868D9609968C907FCD5DB6813
:100D9000202383F31188012352680021D0689268D0
:100DA0008340136181F3118810BD00BF0000000073
:100DB00038B504460D46FFF753FF2269202383F31D
:100DC0001188012352680021D068926883405361E2
:100DD00081F31188104B216943EA4513CA69013335
:100DE0009BB2D3609368D807FCD54FF6FF73D068E9
:100DF000D3609368DB07FCD5D068202383F3118888
:100E000001234A680021D4689268A340136181F3EA
:100E1000118880B238BD00BF0080FFFF00000000D5
:100E2000202383F3118890F82030072B0DD8DFE8BA
:100E300003F0270C0C2308040C08426A9368013362
:100E40009360D0E9003213605A60002210B44FF072
:100E5000FF3481680C4B446280F820201B689A683C
:100E60008A42FBD25A680021C0E900321060586003
:100E700081F3118810BC70470022436A1A60E4E7CE
:100E8000002383F311887047D01000200000000079
:100E9000704700BF000000000000000000000000DC
:100EA000014B588E704700BF8412002000000000E4
:100EB000014B188E704700BF841200200000000014
:100EC000014BD86A704700BF841200200000000068
:100ED000014B986A704700BF841200200000000098
:100EE000014B588A704700BF8412002000000000A8
:100EF000014B188A704700BF8412002000000000D8
:100F0000014BD88C704700BF841200200000000005
:100F1000014B988C704700BF841200200000000035
:100F2000014B988B704700BF841200200000000026
:100F3000014B188B704700BF841200200000000096
:100F4000014B588B704700BF841200200000000046
:100F5000014B186A704700BF841200200000000097
:100F6000014B5869704700BF841200200000000048
:100F7000014BD868704700BF8412002000000000B9
:100F800008B5024B1889FFF7E3FA08BD8412002068
:100F90002022034B09B11A6170475A61704700BFA4
:100FA000000C0140000000000000000000000000F4
:100FB0001022034B09B11A6170475A61704700BF94
:100FC000000C0140000000000000000000000000D4
:100FD000024B9868C0F3C010704700BF000C01407E
:100FE0000048704700004041000000000000000081
:100FF000202330B483F311880B4B4942D3E90045D9
:10100000281A0840821AA24207D3954205D35A6093
:10101000002383F3118830BC70470020002383F342
:10102000118830BC704700BF68120020000000002B
:10103000024AD36843F0C003D360704700440040C5
:10104000024A136801331360704700BFCC100020C0
:10105000D0E903239A4205D041685A1CCB5C026157
:10106000184670476FF00100704700BF0000000095
:10107000C26803468068904208D010B45C680020C3
:10108000A154DA6810BC0132DA6070476FF00100D9
:10109000704700BF000000000000000000000000DA
:1010A000202383F311880D4B5B6813F4006302D196
:1010B00083F311887047EFF309834FF08072203B70
:1010C000DA6183F30988064A11689269896892682F
:1010D00091428CBF034A044A9A61704700ED00E0D8
:1010E000D010002073020008760200080000000003
:1010F000084B10B4D3E900424942101A0840A042FC
:1011000004D3824202D310BC58607047002010BC48
:10111000704700BF681200200000000000000000BF
:101120000E4A0F4B516F5B6882685B1A9B1AC2684C
:1011300030B4D0E9044541680132E418C0E9023214
:10114000026845F100058B4288BF43609342C0E9C5
:10115000044530BC38BF0360704700BFD01000208A
:10116000001000E00000000000000000000000008F
:10117000014B5B6883607047001000E000000000D6
:1011800000228168064B80F820201B689A688A42FA
:10119000FBD25A68C0E9003210605860704700BF47
:1011A000D01000200000000000000000000000003F
:1011B00038B504460068844209D0002503682360DE
:1011C0005C604562FFF7DCFF2068A042F6D138BDC5
:1011D000F8B50468A04221D007460D46002604E079
:1011E0000B2A1CD02468A74218D0E3682B43E36085
:1011F00015B123691D42F5D0D4E90103416B90F884
:1012000020200B430A2A4363EAD1426A1342E9D001
:101210004662FFF7B5FF2468A742E6D1F8BD426AEF
:1012200032EA0303DED1F3E7000000000000000013
:101230004FF6FF73994228BF19460229024638BF6C
:1012400002214FF0804053189BB24363436A9BB224
:101250009A1A92B291420BD802211A4601310B44DC
:101260009BB24363436A9BB29A1A92B28A42F4D207
:10127000704700BF000000000000000000000000F8
:10128000FEE700BF000000000000000000000000BA
:101290000B0719D40E2370B50226826904465568DF
:1012A000296821F00F012960557B1168AB40426825
:1012B0004B604670136823B198476378022B00D0C7
:1012C00070BD0023637070BD72B6024B024ADA62D1
:1012D000FEE700BFD0100020204F000800000000F3
:1012E00011F0080218D12DE9F0418378044643B982
:1012F0004368DB68002B3BD0BDE8F041818B89B2AD
:10130000184745686B6A63B14C0733D48A072FD5F9
:10131000BDE8F0410121184772B6184B184ADA624D
:10132000FEE70E22022741694B681E6826F00F0671
:101330001E604E7B0968B2404A608770AA6832B16D
:101340009047A378BB4213D1636965685B6800224C
:10135000A270EA680121002A0CBF20222222E06844
:101360001C340243DC6059601A601A680A431A6030
:10137000BDE8F0811146BDE8F0411847D0100020CB
:10138000204F0008000000000000000000000000E6
:101390000B0700D4704772B6014B024ADA62FEE7CF
:1013A000D0100020204F00080000000000000000C6
:1013B000F8B50C0748D4436804461A78002A2CD1A3
:1013C0000E22456A5E686F68036A396821F00F0172
:1013D0003960697B2F6802FA01F15D6879602968DC
:1013E0001F6821F00F0129605B7B9A407A60002E14
:1013F0002FD004230370B0472378042B29D0202357
:1014000083F31188A06820B10023A3604362FFF733
:10141000B7FE002383F31188F8BD4A070D4603D5B4
:101420005B68002BF8D09847AB07F5D563685B681D
:10143000002BF1D004222046227098472378042BF9
:10144000EAD103232370F8BD72B6064B064ADA626E
:10145000FEE702232370202383F31188A06800286D
:10146000D2D1D6E7D0100020204F000800000000A5
:10147000032AF0B42DD0042A08BF416100230827B5
:101480001D461C461E46DFF850C01CF8022011F015
:10149000800F4FEA04144FEA03134FEA06164FEA8F
:1014A00005150CBF44F00F04134311F4004F0CBF9B
:1014B00046F00F061543013F4FEA4101E7D142686C
:1014C0001640354345600268144023430360F0BC76
:1014D00070470161D2E700BF7C51000800000000A6
:1014E0002DE9F04301262B4D06FA00F70446286843
:1014F000074218BF002001D0BDE8F083DFF89880D4
:1015000038432860D8F8140004EB060CDFF88CE0B0
:1015100045F83C2040EA060905EBCC0C0EEB041024
:10152000CCF804306B68C8F81490D8F8142082689E
:101530002401134214D00E214FF0000C0EEB0406D0
:1015400072685EF804E0747B3B43A14014686B60F2
:1015500024F00F041460CEF80410C2F800C0CBE7EA
:10156000C27B09014FEA521C4FEA8C0C02F1604821
:101570000CF1604C02F01F020CF5614C06FA02F20D
:10158000C9B208F5614888F80013CCF88021CCF87E
:101590000020D0E7DC120020001002400C510008AF
:1015A00030B40268437B11684468D940246801F074
:1015B0000E010C420ED0807B074C013054F83050A5
:1015C00001FA03F353602DB104EBC0002B4630BC8D
:1015D0004068184730BC7047DC1200200000000053
:1015E0000279052A01D000207047C2680346D068FE
:1015F00010F0010003D0012051B10860704710B411
:101600000224116921F0360111611C7110BC704770
:10161000704700BF00000000000000000000000054
:1016200007207047000000000000000000000000DC
:101630008446007905284CD0F0B51F200424DCF83E
:101640000C608CF80440F060306983B040F0010019
:10165000306182B34FF6FF701D4621F00107ADF8EF
:10166000040007F1006701F0010415F8013B0DF1DA
:10167000080E74440131013A04F8043C2B4601F091
:10168000010402D011F0010FEFD1BDF804503D80EC
:10169000F468E407FCD4F46804F01F0E14F0100F93
:1016A000C6F80CE009D1640711D43C88A4B2A54265
:1016B0000DD1002AD0D1002000E00620022233699B
:1016C00023F0010333618CF8042003B0F0BD032044
:1016D000F4E70120704700BF000000000000000098
:1016E00000487047A85300080000000000000000F8
:1016F0000020704700000000000000000000000013
:10170000036810B55B680C469847C36813B153F87B
:10171000340010BD006900FB04F010BD00000000A3
:1017200019B9C1680068FFF7EBBF41690068FFF7AE
:10173000E7BF00BF00000000000000000000000044
:101740002DE9F041214C05460E46014660681746DA
:10175000FFF7E6FF63680146186804F5F273026854
:10176000D2F808801022C04758BBD4F8EC313B6057
:10177000FFF7F6F9307010B10020BDE8F081636822
:10178000B5B1D3E905572F44AF4203D8F4E798B970
:10179000BD42F1D063682946186801350368DB69EA
:1017A00098470528F3D1022333700020BDE8F0816B
:1017B000D3E903572F44E7E7042300202370BDE853
:1017C000F08104236FF007002370D6E7C00E0020DD
:1017D0000379052B13D010B50446FFF791FF00F1F4
:1017E00000610B1F01F57F7101E08B4209D053F8B6
:1017F000042F0132F9D002232371052010BD0120EE
:10180000704702232371002010BD00BF00000000BC
:1018100038B50379052B15D005251F22C36805713E
:10182000DA601A69044642F002021A61FFF768FFA3
:10183000E36800F1006058611A69002042F040023C
:101840001A6138BD012038BD000000000000000012
:1018500070B40026134B8468996946628D68AC4267
:101860000CD880F820601B689A689442FBD970BC41
:101870005A68C0E900321060586070471A4681F813
:10188000206012689468A542FBD301255468C1E921
:1018900000242160516080F8205070BC9861FEF7F0
:1018A000D7BC00BFD01000200000000000000000E6
:1018B000034670B5202080F3118802240025012002
:1018C000C3F85C2103F5AE72164EC3F88C21164A9C
:1018D000C3F88811C3F8BC11C3F87C21134972699D
:1018E000A3F8A04103F5C074C3E9646283F8A201C0
:1018F000C3F89811C3E96D55C3F89C3103F5D47151
:10190000C3F86051146103F5D6722046C3E96A1228
:10191000C3F8B0217461FFF79BFF85F3118820465F
:1019200070BD00BFD0100020610200082C4F0008DD
:1019300030B40125074B99691A6881F820001468B2
:101940001046636082F820501C6030BC9A61FEF73C
:101950007FBC00BFD010002000000000000000008D
:10196000F0B54B1C87B048D0504D4FF080432F4608
:1019700057F81C2FD3F824C00646DFF834E1A869D5
:10198000BA420C4605901FFA8CFCCDF810E05AD0F4
:101990002B8D9068ACEB03039BB2CB1838BF1C4671
:1019A000A04231D8844204D91268241A9068A04217
:1019B000FAD34FF0FF300394D2E90131091B01AC97
:1019C000CDE901231C60C2E9014168623046FFF79E
:1019D000AFFF049B6BB1EB69A3421BD04FF0FF300C
:1019E000019B039C9A68029922440B60C3E901128F
:1019F0006862AB69586A07B0F0BDFFF799FF2B4DDD
:101A0000AB69586A07B0F0BD6046FFF711FCEA69A0
:101A10009068C7E70021019BEB615F60EA69049170
:101A2000BA423ED04FF080409168039C2B8D2144F8
:101A30009160406A80B2C31A9BB29942D9D9C91A3F
:101A4000FFF7F6FBD5E74FF6FF71A14228BF21460D
:101A5000022938BF02214FF0000E02200CEB0102D8
:101A6000039492B201ACCDE90177C5E90744A5F82A
:101A700028C05A63C3F810E0D8605A6AA2EB0C027F
:101A800092B29142A2D818460CF1030292B242637C
:101A9000436A0132A3EB0C039BB2994292B2F6D98E
:101AA00094E74FF08043D960A3E700BFD010002037
:101AB000210E0008000000000000000000000000EF
:101AC00061B10346074A10B4926944680420C2E930
:101AD0000034226010BC5A60FFF742BF4FF0FF3065
:101AE000704700BFD0100020000000000000000080
:101AF00070B52023054683F311882A4C04F10806AB
:101B00002378052B04D0E36A9A6812F0E05F09D1CC
:101B1000C8213046FFF7D4FF0028F1D0002383F31B
:101B2000118870BD41F201021F490968B2EB114FE3
:101B30009A682DD0500123D49A6811012ED49A6846
:101B4000D20019D54FF4D07213442A7812F0200F26
:101B5000C2F3001217D06968520042EAC10242F093
:101B60000402297842F0010201F00F01D5E9024098
:101B700059609C60D8601A60002080F3118870BDA5
:101B80004FF4C072E0E7A988520042EA4152E8E708
:101B9000C2F30162183203EB0213D6E74FF4C872A6
:101BA000D2E700BF90070020002004E00000000002
:101BB000F8B504460F461646202383F3118805E046
:101BC00031462046FFF77CFF002817DBA568002D73
:101BD000F6D06269A368511C013B6161A360177074
:101BE000D4E904329A4224BFE3686361E3690BB12C
:101BF00020469847002080F31188F8BD85F31188AE
:101C0000F8BD00BF00000000000000000000000060
:101C10003030FFF7CDBF00BF000000000000000023
:101C20004FF0FF323030FFF7C3BF00BF00000000AD
:101C300070B5202305460E4683F3118805E0314632
:101C40002846FFF73DFF002818DBAC68002CF6D0D3
:101C5000A969AB6828694A1C013B8242AB6028BF76
:101C6000EB68AA610C7828BFAB61EB690BB1284621
:101C70009847002383F31188204670BD84F31188B0
:101C800070BD00BF00000000000000000000000068
:101C90000C30FFF7CDBF00BF0000000000000000C7
:101CA0004FF0FF310C30FFF7C3BF00BF0000000052
:101CB00008B50146202383F311880820FFF750FE62
:101CC000002383F3118808BD00000000000000001D
:101CD0002DE9F04F0368054683B000293FD1D3E9D1
:101CE000034204EB020AA2453ED940F2E736002740
:101CF0001868214603685B69984740BB2B684FF41E
:101D0000FA69D3F800800DE0B346BC4601994FF460
:101D10007A72E9FB01BC002361465846FEF72CFDB0
:101D2000FFF7C6FFD8F8003040469B6901A99847E5
:101D30000128E9D058B92B68214618680368DB6987
:101D4000984720B9013454450ED02B68D0E70422BF
:101D50006FF00700064B1A7003B0BDE8F08FD3E9AF
:101D6000054204EB020ABEE7002003B0BDE8F08F95
:101D7000C00E002000000000000000000000000075
:101D80000A4608B540F2E7304FF4FA630021E3FB5E
:101D9000020100234FF47A72FEF7EEFCBDE8084022
:101DA000FFF786BF000000000000000000000000F8
:101DB0002DE9F04706460D46DFF868901746D9F83A
:101DC0000410134608682A4604683146E468A047B0
:101DD000E8B91DB309F5F27801E02D1B1ED0202DC6
:101DE0002C4628BF2024D9F80430224618684346E0
:101DF0000168D1F808A03146D047264438B93946A1
:101E00002246404603F05EF827440028E5D004232C
:101E10006FF0070089F80030BDE8F0870020BDE8CA
:101E2000F08700BFC00E002000000000000000008E
:101E3000F0B5184B0A465F6885B048BBF96878680A
:101E4000154DDFF85CC0ADF80C00CDE900C543F2DC
:101E500043434FF6FF74114E02920DF101000DF154
:101E60000E0505E010F8012B82EA142236F8123034
:101E700083EA0423A8429CB2F4D13868ADF80E403E
:101E8000FFF73EFC6A461021FFF792FF05B0F0BD58
:101E90007969D4E7C00E0020C59C33F0A851000832
:101EA000DE5A70EC0000000000000000000000009E
:101EB0002DE9F04F354B85B01A7A58680392B2FA83
:101EC00082F2520911469B460292FFF729FC00F16B
:101ED00010035F4600930BF5F27A03E02C4B0837B2
:101EE000BB4236D0BE69002EF8D0FB690F3323F019
:101EF00001030233019323D09846009D02E0B8EB22
:101F000004081DD045F01F04641B0134444528BF5C
:101F10004446DBF804302246186853460168D1F87D
:101F200008903146C847264438BB284652462146C9
:101F3000FFF73EFF25440028E1D005B0BDE8F08F53
:101F4000009B019ABB611A44114B0837BB420092B7
:101F5000C8D1DBF80C100298009B0131CBE90313C8
:101F60008BF80800FFF764FF0028E6D103990948C1
:101F700005B0BDE8F04FFFF7ABBE04236FF00700DC
:101F80008BF8003005B0BDE8F08F00BFC00E002018
:101F9000C00F0020C40E0020000000000000000060
:101FA0002DE9F04FDFF804830323C1464FF0000B07
:101FB00091B0009308F5807ABC4EC8E903BB88F85D
:101FC00008B0C8F814B03346C846CDE90ABBC3E927
:101FD00006BB08339A45FAD100200AAA0DF1260162
:101FE000FFF7AEFB034628BB01200BAA0DF127012A
:101FF000FFF7A6FB0346E8B99DF826209DF8273099
:1020000043EA82030A2B00F2EE80DFE813F0F200CD
:10201000FA00DD00EC00FE002700C900EC000B0018
:102020002C00D5000021A248FFF752FE03460028ED
:1020300000F0508113F1090F00F0D580002B80F2E1
:10204000AB80009B013B0093B6D104226FF00703E5
:1020500089F80020184611B0BDE8F08FDDE90A23A9
:102060009A4200F29D8000219148FFF731FE03461D
:102070000028DFD101231D4607932946D9F8040023
:10208000FFF74EFBD9F8043001461868894B026807
:1020900094681022A0470446002840F00381FEF710
:1020A0005FFD012840F09F80D9F8EC312946C9F83E
:1020B0000C30D9F8040089F80850FFF731FBD9F843
:1020C000043000F110079B68C3180193103B9F4236
:1020D000CDE9023446D2CDE9058629E0764A93421D
:1020E00040F0D9800D9B754A934240F0D480BDF8F2
:1020F0003830013B9BB21F2B00F2CD80019B0F9C1F
:10210000DB1B9C4200F2C780002C40F082804FF61F
:10211000FF73BDF83A209A4200F0B2800123039386
:102120000F3424F00104029B023427449F4217D24B
:10213000D9F804200CAB1068102201688C6839466D
:10214000A047002840F0AC80D9F804200C9B5268CE
:102150009342C3D10D9A9342C0D10E9A9342BDD1FE
:10216000DDE90586102200211346C9E90472B06931
:102170009A1C28B10121F3690F3323F001031344A2
:102180000836B245F3D109B1C9F81430039B002BCE
:1021900040F09880079843B2022289F8002059E75E
:1021A00001214348FFF794FD034600287FF442AF26
:1021B00001230025079360E700213D48FFF788FDD4
:1021C000034600287FF436AF01213948FFF780FD30
:1021D000034600287FF42EAF0121FFF729FE0346B6
:1021E0000028E5D026E704226FF0080389F80020D4
:1021F00030E701210020FFF71BFE03460028D8D05E
:1022000018E700230125079337E700231D460793AE
:1022100033E74FF6FF7507F110080497202C264688
:1022200028BF2026D9F8043032461868414607688E
:10223000204BBF68B84798BB06F5F2731D4A4B4464
:1022400012F8011B1E4881EA152130F811109A423C
:1022500081EA0525ADB2F3D1A41BB044DED1BDF8AF
:102260003A30049FAB420F9C7FF458AF44B1BDF8A5
:102270003830023309EBC30249F8337054604FE73A
:10228000BDF838300024023349F833B009EBC303FA
:10229000C3F804B044E70123DDE90586039361E751
:1022A000DDF81480042389F80030CAE6C00E00204F
:1022B000C40E0020A4100020F045AE5F5FAE45F0D4
:1022C000A8510008FFF7F4FD034600287FF4B2AEE2
:1022D000012060E701210846FFF7AAFD0346002818
:1022E0003FF4C8AEA6E600BF0000000000000000FA
:1022F0000CB42DE9F04F8DB016AC54F8045B0027F8
:102300002A46C720BD4B12F8011B0793BC4BCDE9F1
:10231000090703940B97089361B94CE2079B07A840
:10232000DB681546013798472A4612F8011B002939
:1023300000F0C7802529F1D16B782D2B08BFAA1C8E
:1023400013780CBF4FF0010E4FF0000E2B2B05BF82
:102350000126537800269219302B05BF98465378F2
:102360004FF0200801322A2B40F0B78054F8041BAC
:102370005378951C2E2B00F04581002203F0DF00DE
:102380004C2800F0C380A3F1440CBCF1340F00F2E0
:10239000AB81DFE81CF07701A901A901A901A9011E
:1023A0007701A901A901A901A901A901AD01350080
:1023B000A901A901A901A9019F00A901A90135004D
:1023C000A901A901A901A901A901A901A901A901BD
:1023D000A901A90163017701A901A901A901A90125
:1023E0007701A901A901A901A901A901AD01350040
:1023F000A901A9014201A9019F00A901A901350074
:102400004FF0100C54F8042B0DF11B0300E0334681
:102410009146B2FBFCF20CFB129A0AF1300039280B
:10242000C8BF0AF13700C0B2E14503F1FF3603F837
:10243000010CECD20DF11B099A464B4604AA9E1BD7
:102440009446534601E013F8010B4B450CF8010B81
:10245000F9D19246891B013E21EAE179BEF1000FD4
:1024600004D10029C9F1000900F35681002E13DBC5
:102470000DF11C0B731C5344019525465C469B468D
:10248000079A1AF8011B2046D2689047DA45F7D11F
:102490002C460137019D3744B9F1000F3FF444AF9A
:1024A0004E460DF11C0B079B41465846DB6898478A
:1024B000013EF8D12A4612F8011B4F4400297FF44F
:1024C00039AF0A99C7291DD938460DB0BDE8F04F7C
:1024D00002B070474FF00A0C94E7551C002BF0D067
:1024E0000021A3F13002D2B2092A01EB81003FF6AC
:1024F00041AF15F8013B02EB4001002BF1D10A99E5
:10250000C729E1D800233E4A5354DDE715F8013BC3
:10251000002BD6D0A3F14400342800F2E5800FF25E
:10252000080C5CF820F000BF85260008E9260008AA
:10253000E9260008E9260008E926000885260008A3
:10254000E9260008E9260008E9260008E92600082F
:10255000E9260008F126000801240008E926000801
:10256000E9260008E9260008E9260008D524000825
:10257000E9260008E926000801240008E9260008E9
:10258000E9260008E9260008E9260008E9260008EF
:10259000E9260008E9260008E9260008E9260008DF
:1025A000E92600085D26000885260008E9260008BF
:1025B000E9260008E9260008E92600088526000823
:1025C000E9260008E9260008E9260008E9260008AF
:1025D000E9260008F126000801240008E926000881
:1025E000E92600081B260008E9260008D524000873
:1025F000E9260008E9260008012400088C54000898
:102600009C0800202B78002B3FF45BAF2A2B72D163
:102610006B7854F8042B0235B0E654F804ABBAF1E9
:10262000000F00F0BF809AF80030002A40F0AA8026
:10263000002B00F0AB8047F6FE72564601E0D34215
:1026400005D416F8010FAAEB06030028F7D1A6EB74
:102650000A06891B4FF02008013EFDE64FF02008D6
:1026600054F8043B01398DF8103021EAE179BEF1CC
:10267000000F03D10029C9F100097DDC00260DF10E
:10268000100AF5E654F8049BB9F1000F6BDB002E3D
:1026900000F08E802B230DF111068DF8103004AA66
:1026A00006F10B0B5846484BCA46A3FB09C3DB088F
:1026B0009C4603EB8303A9EB43033033DBB2BAF14F
:1026C000090FE14600F8013DEDDCABEB000BB34434
:1026D00001E010F8013F06F8013B5E45F9D1B61A5A
:1026E000891B9246013EB7E68DF810300139BCE7F0
:1026F0004FF0080C86E600220135A3F13000C0B28D
:10270000092802EB820C3FF639AE15F8013B00EBCD
:102710004C02002BF1D1D4E6CDF804909AF80010C9
:102720002D2912D02B2910D00DF11C0B079B4146EF
:102730005846DB68984719F10109F7D1019B002E33
:10274000A7EB0307BFF696AEEEE5B8F1300FEBD17D
:10275000079A0DF11C0B5846D26890470AF1010AFE
:102760000137013EE2E72D23C9F100098DF8103051
:102770000DF1110604AA93E77646CDF804900DF109
:10278000100ACBE713B1013A7FF557AF21EAE1799F
:10279000BEF1000F03D10029C9F100090DDC4FF093
:1027A000200879E6DFF824A0002A3FF444AFEAE7E6
:1027B00004AA164674E70F46A4E64FF020084FF02F
:1027C000FF36CDF80490A9E7CDCCCCCC344F00082F
:1027D0002DE98048DFF808813C4E3D4CDFF8109130
:1027E000DFF810B1DFF810A13A4D3B4F8BB038E065
:1027F000E189B4F80CC004916189CDF80CC0029154
:10280000B4F808C0E188CDE9001CC821FFF770FDCD
:10281000202383F311886A68AB69D2F804E02A693F
:102820005B6842F09202C3F80C804FF0010C5860D4
:1028300000211A60BEF1000F07D06FF04000AA68B7
:102840001060D06840F04000D0601A6842F0010289
:102850001A6085F801C081F311884FF4C870FFF742
:1028600027FA4FF47A7C33681C4A013387FB031E36
:10287000D917C1EBAE110CFB113123791848316027
:10288000002BB5D1174A92F900000691DBF8001031
:1028900022890293E3880891DAF80010CDE9033227
:1028A000D9F80430079105900F49D9F82800019311
:1028B000FDF7E4FCFDF71AFFC8210090D9F8343089
:1028C0000A4A0748FFF714FDA2E700BFC410002022
:1028D000701200207C080020D34D62103C4F00088D
:1028E0009C0800201E13002000007A44804F00083E
:1028F00084120020C8100020CC100020000000002E
:10290000F8B50369202080F3118803201E461D6A54
:1029100018705C6A6D680F4F6468EF60D3E90A73E2
:1029200043F080036A602F60E160626023602B687F
:10293000094A43F001032B602368926943F00103C5
:10294000236046F8082F5662FEF7F2FF002383F358
:102950001188F8BD1C130020D010002000000000DA
:10296000F8B50C460546FEF77BF93D483D493E4A21
:102970003E4B30F8147031F8146052F8240033F8EC
:1029800014302022296982F31188012249684FF00E
:10299000000CD1F80CE0896802FA0EF24A618CF35F
:1029A0001188022C2A6959D0590189B2D36941F0A2
:1029B0000101D9609968C907FCD5D968DE609968BA
:1029C000CC07FCD5D96847F6E171D9609968C90789
:1029D000FCD5D968DF609968CC07FCD50021DC689C
:1029E000D9609968C907FCD52027DB6887F311886F
:1029F0004FF0030C1446116A82F800C0536A49680C
:102A0000DFF870E05B68C1F80CE0D2E90AE242F05E
:102A100080024E60C1F800E0D8605E601A600A680B
:102A2000134842F001020A601A68816942F001020B
:102A30001A6044F8081F60464C62FEF779FF0022D6
:102A400082F31188296987F3118801234968C868CE
:102A5000896883400B6182F31188F8BDD369B2E7BE
:102A6000D44F0008E44F0008EC4F0008DC4F00088A
:102A7000D01000201C130020000000000000000007
:102A80002DE9F84F544B554A33F81160544B1F2E23
:102A9000044632F8115053F8218040F29980A6F193
:102AA0001F071F26B146BFB26A0192B221692023D7
:102AB00083F31188012349680020D1F80CC089688C
:102AC00003FA0CF34B6180F3118823693244D9690E
:102AD00092B2CA608A68D007FCD5CA68202282F305
:102AE0001188D3E9082BD3E90AEC032019461870A2
:102AF000DBF804305268DFF8ECA04CF0800CC2F830
:102B00000CA0C2F80490C2F800E0C3F80C80C3F82F
:102B10000490C3F800C0D2F800C0DFF8CCB04CF08D
:102B2000010CC2F800C01A68DBF818C042F00102BC
:102B30001A6041F808CFCCF82410FEF7F9FE002304
:102B400083F31188002F34D023693544DA6907EB09
:102B50004515ADB2D5609168C907FCD5D268202271
:102B600082F3118803201E461A6A5D6A1870516844
:102B70006A6808EB4908D3E90A5343F08003C1F8B7
:102B80000CA04F600D60C2F80C80576013600B689A
:102B9000DBF8185043F001030B60136843F00103A6
:102BA000136046F8085F6E62FEF7C2FE002383F3EF
:102BB00011882023226983F31188012352680021A0
:102BC000D06892688340136181F31188BDE8F88F63
:102BD000B146002768E700BF04500008F84F00081E
:102BE000105000081C130020D0100020000000002E
:102BF0002DE9F0474FF0100A2027444D03690446A1
:102C0000C5F814A06F6187F311884FF001095A6865
:102C10000026D368926809FA03F3136186F31188DA
:102C20000220FFF745F802202F61FFF741F8204608
:102C3000D5F80880FEF714F82046FEF789F82046FC
:102C40004FF4E971FEF7B4F8E08010F0020007D00D
:102C500005232371C5F814A06F613046BDE8F087E5
:102C6000236987F311885A68D368926809FA03F3D5
:102C7000536180F311884BF6A1222169CB69DA6098
:102C80009A68D007FCD54FF6FF72D868DA609A6868
:102C9000D207FCD52020DB6880F311880125496824
:102CA0000026CA68896805FA02F20A6186F311886B
:102CB000C3F307239D2B08D003211022134B21714E
:102CC0005A6158613046BDE8F08731462046FFF72B
:102CD00047FE29462046FFF743FE02212046FFF724
:102CE0003FFE31462046FFF7CBFE084B18F0800F21
:102CF0009B6801D11F060BD4042010212022034B16
:102D00002071002659615A61A7E700BF000C0140FD
:102D100029462046FFF7B4FE02212046FFF7B0FE09
:102D2000BD4D03212046FFF7ABFE20460421FFF7EF
:102D3000A7FE2889A0F10A033E2B13D8FDF708FC53
:102D4000B649FDF79BFAFDF7F7FC86B2721C4021ED
:102D5000204692B2FDF7BCFF721E4121204692B27E
:102D6000FDF7B6FFE868AE49FDF788FAAD49FDF713
:102D70003FFBAD49FDF782FAFDF7DEFC002182B290
:102D80002046FDF7A5FF6869A549FDF777FAA54933
:102D9000FDF72EFBA449FDF771FAFDF7CDFC0121EB
:102DA00082B22046FDF794FF286A9D49FDF766FA36
:102DB0009C49FDF71DFB9C49FDF760FAFDF7BCFC43
:102DC000022182B22046FDF783FF6B8B204603EB86
:102DD00043025200032192B2FDF77AFF2B8B20466B
:102DE00003EB43025200042192B2FDF771FFAB8B5B
:102DF000204603EB43025200052192B2FDF768FF23
:102E0000AB8C204603EB43025200062192B2FDF741
:102E10005FFFEB8C204603EB43025200072192B286
:102E2000FDF756FF2B8A204603EB4302520009218F
:102E300092B2FDF74DFF6B8A204603EB430252002E
:102E400092B20821FDF744FFA86A7549FDF716FA0A
:102E50007449FDF7CDFA7449FDF710FAFDF76CFCE3
:102E6000452182B22046FDF733FFE86A6C49FDF741
:102E700005FA6C49FDF7BCFA6B49FDF7FFF9FDF760
:102E80005BFC462182B22046FDF722FF2B8E2046B6
:102E900003EB43025200472192B2FDF719FF6B8EFC
:102EA000482103EB43025200204692B2FDF710FF87
:102EB0002269202383F31188012352680021D068FE
:102EC00092688340536181F3118842F201022169C3
:102ED000CB69DA609A68D607FCD51822D868DA6020
:102EE0009A68D507FCD542F20142D868DA609A6840
:102EF000D007FCD51822D868DA609A68D207FCD5CA
:102F0000DB68202787F3118801254A680026D368EB
:102F1000926805FA03F3136186F311881420FEF713
:102F2000C7FE236987F311885B68DA689B68954060
:102F30005D6186F311884AF201022169CB69DA608A
:102F40009A68D707FCD54FF6FF72D868DA609A689E
:102F5000D607FCD5DA6812F0200269D04AF20142A5
:102F6000DA609A68D507FCD54FF6FF72D868DA6048
:102F70009A68D007FCD5DB6813F0200365D02025C4
:102F800085F3118801274A684FF00008D3689268DA
:102F900007FA03F3136188F311882046FDF7D8FE82
:102FA0000A20FEF785FE4FF4E9712046FDF700FF89
:102FB00040F2A511E0802046FDF7FAFE4FF4D371F0
:102FC00020812046FDF7F4FE40F2A71160812046E3
:102FD000FDF7EEFE4FF4D471A0812046FDF7E8FE28
:102FE000A679E0813E403CD14FF01009DFF83C80EB
:102FF0001420C8F81090FEF75BFE4FF4E9712046EC
:10300000FDF7D6FEC206E08033D406232371C8F84C
:103010001490C8F8145020E684120020CDCC4C4007
:103020009999FA4200007A430C9FD13D000C01406F
:10303000202383F3118801234968C8688968834085
:103040000B6182F31188012057E6202282F3118858
:1030500001224968C868896882400A6183F311883F
:10306000F1E7072110220B4B217146465A615D6141
:10307000F3E54FF4E9712046FDF79AFEC307E080BF
:1030800001D43E46E9E502232371C8F81490C8F83C
:103090001450E2E5000C01400000000000000000B8
:1030A00000252DE980482E462F46DFF84893D04C66
:1030B000DFF85CA389B009F13C0B202383F311886E
:1030C000DFF850832378052B6BD0E36ADA6890072A
:1030D00064D0DA6892076FD02020D3F8B021D3F8FB
:1030E000B411D3F8B871D3F8BC51D860D868CDE921
:1030F0000675870703D1586940F0020058619DF8B2
:103100000C30C2F3400766F3030367F30413C2F302
:10311000800565F3451398068DF80C3063D5049B44
:10312000D20862F31C03049301F00F06002282F31D
:1031300011889DF80C3066F3030367F3041365F3FD
:1031400045138DF80C30D9B29B06B6D59DF81830D2
:10315000782BB2D101F00F010729AED1049BD9F829
:103160003410C3F31C038B4245D0481C834200F04B
:103170005581881C834200F09A81C81C834200F06C
:10318000D48104318B4200F01A82C820FEF790FDF2
:10319000202383F31188DFF87C8293E71A69910773
:1031A00097D14FF0FF314046FEF78AFC002889D0C6
:1031B000002383F3118880E71A699207B6D0202094
:1031C000D3F8C021D3F8C411D3F8C871D3F8CC51C7
:1031D00018611869CDE90675850790D1586940F0E6
:1031E000100058618BE7BDF81030520D62F30A03EE
:1031F000ADF8103098E79DF81A009DF81930B9F82D
:10320000081003EB002399421CBFA9F808300123E2
:103210009DF81C0018BF01939DF81B3008BF019258
:1032200003EB0020FDF798F94FF07051FDF726F8F9
:103230008046D9F80C004146FDF726FA9DF81E108D
:103240009DF81D30002800F06681B9F8102003EBCE
:1032500001239A4200F02681A9F81030D9F80430F1
:103260009AF800200133022AC9F8043053D0032A07
:1032700040F0DD81DAF820310F2B00F2F481DAE939
:1032800046031B1A4B2B40F2EB8101213C224FF6E7
:10329000FF738446AAF8EC115649CAF8F02111F8D8
:1032A000012B554882EA132230F81220594582EA50
:1032B00003239BB2F3D160460821504A0830AAF894
:1032C000EE31FEF775FD0346F8B9DAF818013C2136
:1032D000484A1030FEF76CFD0346B0B94FF0010CC0
:1032E0004FF03C0EDAF82021DAF8180102EB420127
:1032F0000AEB81016244C1E94AECCAF8202100F1DD
:103300004C02C1F82401CAF818213D4A3D48137007
:10331000FFF76EFC39E7DAF80400DAF81420836866
:103320009B1A5B2B40F299819AF80810FEF7F8F986
:10333000DAF80430DAF810C09B68A3EB0C030344FE
:103340005B2B40F231814FF0000801213C224FF607
:10335000FF73AAF8EC112749CAF8F02111F8012BE4
:10336000254882EA132230F81220594582EA0323C5
:103370009BB2F3D10821214A0CF10800AAF8EE31E2
:10338000FEF716FD03460028BFD1DAF810003C21F5
:10339000184A1030FEF70CFD03460028B5D11A4B31
:1033A000DFF874C00821194ADAF81000CAE979C3B5
:1033B000FEF7FEFC03460028A7D1DAF81820002A01
:1033C00040F04181DAF814203C20DAF810104C3239
:1033D000B8F1000FCAF8142001F14C0218BF022303
:1033E000CAF81810CAF81020CAF81C008DE700BFF0
:1033F0009007002084120020A8510008AC10002083
:103400001E130020701200205FAE45F0A4100020B3
:10341000C00E0020A0070020F045AE5F9DF81A0006
:103420009DF81930B9F8121003EB002399421CBF24
:10343000A9F8123001239DF81C0018BF01939DF8D4
:103440001B3008BF019203EB0020FDF785F84FF019
:103450007051FCF713FF8046D9F814004146FDF780
:1034600013F99DF81E109DF81D30002800F0928081
:10347000B9F8182003EB01239A4213D0A9F81830A9
:10348000ECE69DF81D3003EB0020FDF765F84FF0EA
:103490007051FCF7F3FE8046D9F820004146FDF755
:1034A000F3F8A8B3019B002B3FF46FAED6E69DF86E
:1034B0001A009DF81930B9F81A1003EB002399424D
:1034C0001CBFA9F81A3001239DF81C1018BF0193E6
:1034D0009DF81B3008BF0192B9F81C2003EB0123B3
:1034E0009A429DF81E00CCD09DF81D20A9F81C30F2
:1034F00002EB0020FDF730F84FF07051FCF7BEFEF4
:10350000D9F820108046FDF7BFF800287FF4A6AE5A
:10351000C9F82080A2E6B9F8102003EB01239342FA
:10352000C9F80C807FF498AE98E69DF81A009DF8D3
:103530001930B9F8241003EB002399421CBFA9F8F5
:10354000243001239DF81C1018BF01939DF81B30F7
:1035500008BF0192B9F8262003EB01239A429DF897
:103560001E004DD09DF81D20A9F8263002EB00204A
:10357000FCF7F2FF4FF07051FCF780FE8046D9F85F
:1035800028004146FDF780F800287FF467AEC9F8AF
:10359000288063E6B9F8182003EB01239342C9F8A9
:1035A00014807FF46BAF59E6FEF782FC03460028D7
:1035B0007FF4ABAE4FF00108DAF810C0C5E69DF815
:1035C00019309DF81A0003EB0020FCF7C5FF4FF0FF
:1035D0007051FCF753FE8046D9F82C004146FDF7A8
:1035E00053F89DF81C109DF81B3018B3D9F83820FB
:1035F00003EB012393423FF4C8ADC9F838302DE600
:103600009DF81D3003EB0020FCF7A6FF4FF0705132
:10361000FCF734FE8046D9F828004146FDF734F81F
:103620000028B4D0019B002B3FF4AFAD16E64FF05D
:10363000FF336AE6D9F8382003EB01239342C9F837
:103640002C80DAD10AE6DAF81C20DAF814100F32EE
:10365000D24322F001020A44B6E66FF0030354E6B7
:103660006FF0050351E66FF004034EE60000000022
:1036700080B54FF08647874D874C884EDFF82892FB
:10368000DFF82882DFF828A286B02B6814200133E7
:103690002B60FEF70DFBA36B002BF6D02A68804849
:1036A000804900FB0282B1EB720F2BD800214FF052
:1036B000670C9DF80820039822F03F0242F0280290
:1036C00063F31C0099F804E0636B8DF808206268CE
:1036D000039002A8ADF813108DF815108DF8121094
:1036E0008DF817C08DF810308DF811208DF816E088
:1036F000FEF7FEF910B9FDF7A3FCC6E73368013306
:103700003360C2E79DF80820B4F808C022F03F02F9
:1037100042F028023946E06801938DF80820ADF8A0
:1037200010C0FCF7ABFDFDF707F88446019B039A38
:103730002169013363F31C0202A8ADF812C00392A1
:103740000591FEF7D5F9002840F09B80FDF778FC45
:1037500008229DF80830394662F3030360698DF84A
:103760000830FCF78BFDFCF7E7FFA36B039A0233ED
:1037700063F31C02B4F818C0618BA38BADF8100082
:1037800002A80392ADF812C0ADF81410ADF81630CF
:10379000FEF7AEF9002870D1FDF752FC08229DF823
:1037A0000830394662F30303206A8DF80830FCF7CD
:1037B00065FDFCF7C1FF8446A28CE38C3946A06A04
:1037C000ADF81220ADF81430ADF810C0FCF756FD7E
:1037D000FCF7B2FF0146A36B039A033363F31C02A9
:1037E00002A8ADF816100392FEF782F9002840D126
:1037F000FDF726FC02229DF80830394662F30303E8
:10380000E06A8DF80830FCF739FDFCF795FF0146BA
:10381000A36B039A043363F31C0202A8ADF81010E3
:103820000392FEF765F900BBFDF70AFC2B681C4903
:103830001C4A01FB0383B2EB730F14D99DF80830C7
:10384000A26B0399053223F03F0362F31C0143F09E
:10385000240302A8CDE9031A8DF80830FEF748F9D1
:1038600098B9FDF7EDFBA36B20E7336801333360B4
:10387000DCE7336801333360BCE73368013333601E
:103880008CE733680133336062E7336801333360B8
:10389000E9E700BF6409002084120020C81000205E
:1038A000CDCCCCCC9999991970120020989999197E
:1038B00014180505000000000000000000000000D2
:1038C00070B5D0E903369D1B954228BF15460446C6
:1038D00043682A4608469919FDF7CAF8226928461E
:1038E0002A44226170BD00BF0000000000000000FB
:1038F00070B50446D0E902301D1A954228BF15461E
:1039000066682A463044FDF7B3F8E26828462A4440
:10391000E26070BD00000000000000000000000038
:1039200070B50579052D0ED0044603261F251846CF
:10393000E368267101F10061DD60FDF799F802236B
:103940002371002070BD012070BD00BF0000000089
:103950002DE9F04F85B04FF02009CDE90232C7695B
:1039600089F31188AAB304460E464FF0000ADDF829
:103970000CB0A268934598BF5D46D4E9042088BF87
:10398000A568A2EB0008A84544D829D2A5EB0803F6
:10399000424631460193FDF76BF806EB0801DDF86E
:1039A0000480E0684246FDF763F84346A268E16898
:1039B000521BCB186361A2600FB12046B8478AF34F
:1039C0001188ABEB050B2E4489F31188BBF1000F76
:1039D000CFD10023039883F3118805B0BDE8F08FA1
:1039E0002A463146FDF744F8E2686261A268521B3C
:1039F000A260002DE0D120460299FEF761F8002870
:103A0000B7D0039BA3EB0B00002383F3118805B011
:103A1000BDE8F08F2A463146FDF72AF862692A444C
:103A20006261E3E700000000000000000000000009
:103A30003030FFF78DBF00BF000000000000000025
:103A40004FF0FF333030FFF783BF00BF00000000AE
:103A50002DE9F04F85B04FF02009CDE90232C7695A
:103A600089F31188002A35D004460E464FF0000A2B
:103A7000DDF80CB0A268A169934598BF5D46226944
:103A800088BFA568A2EB0108A84544D829D2A5EBB8
:103A90000803424630460193FCF7EAFF06EB0800B4
:103AA000DDF80480E1684246FCF7E2FF4346A26885
:103AB000E168521BCB18A361A2600FB12046B84742
:103AC0008AF31188ABEB050B2E4489F31188BBF107
:103AD000000FCFD10023039883F3118805B0BDE810
:103AE000F08F2A463046FCF7C3FFE268A261A26865
:103AF000521BA260002DE0D120460299FDF7E0FFA5
:103B00000028B7D0039BA3EB0B00002383F311889D
:103B100005B0BDE8F08F2A463046FCF7A9FFA26940
:103B20002A44A261E3E700BF00000000000000009B
:103B30000C30FFF78DBF00BF000000000000000048
:103B40004FF0FF330C30FFF783BF00BF00000000D1
:103B50000022044B0449C3E902221A71DA80196079
:103B6000704700BF70120020A8500008000000003D
:103B70004FF0FF340020124B2DE980481E691C6174
:103B80001E6918611E69DE68DC60DC68D860DC686C
:103B9000DC690C4D44F08054DC61DC69DC69024670
:103BA00044F00064DC61DB692C68074B44F48074EA
:103BB0002C600146C3E90000044C054D87B00AE0C3
:103BC0000010024000700040DC120020080002409B
:103BD0000C510008446898180832382A2160816026
:103BE00005EB4200F6D14FF0FF3E60244FF48077A2
:103BF0004FF0800A4FF040094FF400784FF4806096
:103C00004FF4000B4FF08836DD4B4FF0010CC3F83A
:103C100004E0DC4BB02583F80643C3F88091C3F879
:103C2000009083F80743C3F880A1C3F800A083F88D
:103C30000843C3F880711F6083F80943C3F880818B
:103C4000C3F8008083F80A43C3F88001186000F1CC
:103C5000804083F8174300F50330C3F880B1C3F800
:103C600000B083F82843C3F884715F608769C64A4F
:103C700047F07D08C0F81880C44FDFF84883D0F8BB
:103C80001890C7F80CE0C7F8048008F5802808F5FC
:103C90003F78C7F8008007F1E947DFF82C8307F584
:103CA0005E178837C8F80CE0C8F80470C8F80060E0
:103CB00008F19148B64F08F5093808F56278C7F859
:103CC0000CE0C7F80480DFF804831446C7F80080CE
:103CD000DFF8FC82C7F80CE4C7F80464C7F8008476
:103CE000C7F80CE8C7F80468C7F800684FF4002765
:103CF000A84EDFF8E09286F800C083F81353C3F8AB
:103D000080711F604FF4801783F81453C3F88071DB
:103D10001F604FF4001783F81553C3F880711F60BC
:103D200083F816534FF4800506F11808C3F8805144
:103D30001D60C769C6F8188006F11C08C6F81C800B
:103D400006F12008C6F8208006F12408C6F8248071
:103D500006F12808904DC6F8288006F10808C6E943
:103D6000028847F0007706F11008C6E90488716000
:103D7000F562C761C769D5F800724FF0804807EA5D
:103D8000090747EA0C07C5F80072D5F8007207EA80
:103D9000090747F4606747EA0C07C5F80072C5F8E1
:103DA0004012C5F84412C5F80412C5F81412C5F83B
:103DB0000CC2C5F81CC2D5F80092042729F00109ED
:103DC000C5F80092D0F81C90744D29F00079C0F825
:103DD0001C90D0F81CB0DFF8009244F8045B704DE2
:103DE00002F1640BC9F800506E4D5460C9F80C50D4
:103DF00002F10C05C2E9035502F15405C2E9085568
:103E00009561102502F13004C2E90A1282F808C057
:103E100051611463C2F81CB089F804C05463624C49
:103E20009563624D84F800C0A5F800C0A970C2E98E
:103E300011BBC2F83CB0D0F81CB012654BEA0C0BB9
:103E4000C0F81CB0C06902F17400106441F20A00AD
:103E5000DFF888B1A062C2F84CB041F21800DFF878
:103E600080B1E062C2F874B008225148DFF874B142
:103E7000EA602A61E06100F50060A860DBF80400F8
:103E800004F10C0240F40060C4E90111C4E9081116
:103E9000C5E9051161616960CBF80400C4E903223A
:103EA00045F6BF52C8F828204FF6FF724FF08050F9
:103EB000C8F82C203F4AC8F81810C8F83410C8F8C1
:103EC0000C10C8F80410C8F814C0C8F800C0DFF817
:103ED0001881DFF818C183F81CA3C3F88001526071
:103EE0001860354BC8F800C008F10C0CC8E903CCC9
:103EF00003F1100CC3E904C102F11C0C2F48C2E904
:103F000007CCDFF8ECC04FF0000AC0F800C0DFF8C3
:103F1000E4C04FF0000BC0F804C01420C8E9011140
:103F2000C8F814109160C2F824E011859960C2E9C4
:103F30000422C3E9003312609861CDE90111D9620E
:103F4000516703911C2103F1240803F13C0CC3F8D1
:103F5000248003F140081A48CDF800E0CDE904AB15
:103F600003F1280EC3E90FC8C3F828E003F1440E9B
:103F70001963C3F844E0DF615F63186298633BE054
:103F80000000024000E100E0D007002000080140EE
:103F900000100140900700200064004064540008B5
:103FA00044540008002002404C0800207C080020F7
:103FB00000300140D010002048110020681200207D
:103FC000F110000888488488000C014088888444E7
:103FD000448888880000FFFFC007002031100008D7
:103FE00000440040002004E0C0120020F10F00084F
:103FF00020130020005000206846FDF7B9F86846FD
:10400000FDF78EF8013FC44AF6D180204FF0010839
:10401000D2F814E09063D066DFF878A3009802F13C
:10402000300302F15C0102F1580BC2E911EAC2E966
:10403000197782F85170126482F8528050674FF0FD
:10404000200ACEF81030C2E90533C2E916B182F871
:104050005080D76411668AF3118862B64FF6FF0E5E
:104060004FF0100BAD4BAE48D968DFF82CC301EA16
:104070000E010843D860DCF80C10AA4841F08071AA
:10408000CCF80C10016841EA0801016083F81FB008
:1040900083F822A087F3118862B68AF3118802237D
:1040A000A149DFF8F8E201F16C00C1F89C009F48DB
:1040B000D2F814C0C1F86CE0DFF8E4E2C1F88C007B
:1040C00001F19000C1F8A4C0C1F8A020C1E9327884
:1040D0000F67C1F89880C1F8C47081F8B280C1F848
:1040E000AC10C1F8A8E0A1F8B030CCF8100001F194
:1040F000B80C506101F1BC02C1E92EC2C1F8C02068
:10410000FDF7A6FB87F311884FF400715A468848E3
:10411000FDF7AEF903224FF480618548FDF7A8F959
:104120005A464FF480518248FDF7A2F903224FF41A
:1041300000617F48FDF79CF98AF311880223D9F8C2
:104140000C207C495068C9F8087001435160D2F8CE
:1041500004C0794979484CEA0101516089F804307A
:10416000076187F31188DFF83C92754B89F800806E
:104170001B883A46802B4B4640F220827149C9E9A0
:104180000377C9F8041089F80870C9F8147009F5A4
:104190008071C3E9062208339942FAD1FDF700FF86
:1041A00099F80020DFF80082023A012A88F800001E
:1041B00000F29382D9F81810002900F0A082D9F8F3
:1041C0001C303C2B00F29682D9F8043018685E4B04
:1041D000026897681022B847002840F08382D9F817
:1041E0000430D9F81CB01868584F0368D9F8181073
:1041F000D3F808A05A463B461031D047002840F07B
:104200006582BBF1000F00F0578239464FF6FF730D
:10421000DFF898C107EB0B0011F8012B82EA13229B
:104220003CF81220884282EA03239BB2F4D1B9F809
:10423000EE219A4240F04A820023BBF13C0F88F8FD
:10424000003000F034824BF630334BF620324FF022
:10425000070E4FF0140C41200A217B633C4BBA63DC
:10426000FB603C4A3C4B3A617B613C4A3C4BBA6147
:104270003B623C4A3C4B7A62BB623C4A3C4BC7E9DE
:1042800000EC3881B983FA623B63202383F3118801
:1042900002230121374A3370D369374843F0007352
:1042A000D361F36AD269706019605A68D00707D485
:1042B00001210820FDF754FBF36A5A68D107F7D5AE
:1042C000042772682D4950681268D8611A605961D4
:1042D0003770002383F3118810224FF48051144863
:1042E000FDF7C6F803224FF400611148FDF7C0F84E
:1042F0008021234A2348FDF7DBFA7C21224A234808
:10430000FDF7D6FA202686F311882B78204A012B58
:104310006A6000F096814BE0D010002000ED00E0D4
:104320000003FA05001000E090110020610200086F
:104330000008014023016745AB89EFCD0020024012
:10434000E0F7FF1F84500008A41000208412002012
:10435000000050416400900166661641BC020A00EC
:10436000CDCC6C403C0010270000A0400000404035
:104370000A00102700100240245000085B8701004B
:1043800071360008F80C0020A1300008300B002026
:104390004050000890510008F0ED00E08112000844
:1043A000CC4F0008C00E00201E130020A8510008AA
:1043B00000270E226E69AF7071686F700868AB6875
:1043C00020F00F000860D5F818C0707BD6F800E028
:1043D00002FA00F0DCF80460CEF804003068DCF883
:1043E00000E020F00F0030609CF80D6042F21C1CD1
:1043F000B240CEF8042042F20C1E6A68DF601F61F2
:104400005F619069C04ED768B6FBF0F056694FF017
:104410000108002E0CBF76466646002F0CBF4FF0F9
:10442000200E4FF0220E4FF0000C02279860B2F8D9
:104430001E90108CB2F81CA0EA6849F0400940F0C8
:10444000C10046EA0A064EEA0202D3F800A0D3F8F9
:1044500004E0C3F800C0C3F810905861AB48DE60B8
:10446000C860C1F804800A600B6843EA08030B6067
:104470002F708CF31188A64D8021A64AA648FDF71F
:1044800017FA284606224FF40051FCF7F1FF4FF4CB
:104490000053A2486B6106224FF48071FCF7E8FFDD
:1044A0004FF48073102243612021FCF7E1FF3A466C
:1044B0004021FCF7DDFF10228021FCF7D9FF2846C0
:1044C0003A463946FCF7D4FF06220421FCF7D0FF18
:1044D0004FF004094FF00072914BC5F81090102175
:1044E0005A600622FCF7C4FF4FF020081023414613
:1044F0006B6106228B4EFCF7BBFF4A468021C5F854
:104500001480FCF7B5FF346188F311882078864B5E
:10451000012863606BD040F65501D4E90A0220F40B
:10452000706022F4706240F4A06042F4A062C4E9BA
:104530000A021A78A06A002A51D0E26A40F02400E8
:1045400042F02402C4E90A020225E2695B8A10688B
:1045500043F0070341F4417120F040001060116006
:1045600053601368002143F040031360257081F30A
:1045700011882023326983F3118801235268D0689F
:1045800092688340136181F311884FF47A70FDF7CC
:104590008FFB6448FEF72CFB04465D4E5F4D44B133
:1045A000EB6883F48073EB60C820FDF781FB002C7F
:1045B000F6D1F36883F40053F360F5E75B49C9E98A
:1045C0000377C9F8041089F80870C9F8147009F560
:1045D0008071C3E9062208339942FAD1DEE5E26A26
:1045E00020F0240022F02402C4E90A02ACE70A21E8
:1045F0004F4B504AFCF774FF05460A2138464C4B96
:104600004D4A2562FCF76CFF01464C48276A8569D4
:104610006368E26945F480557F6885614D68616231
:10462000198A0C328069BA60AA600A053FF575AF35
:10463000D4E90A0220F4706022F47062C4E90A022C
:1046400077E738460C213E4B3E4AFCF749FF0746C8
:104650000C213B4B3C4A03206F61FCF741FFC02714
:10466000364BA86102469869384940F48040986109
:1046700068689B6981F82573838BC1F8846103F4B2
:10468000A053B3F5805F4E6007D1D5E9031341F421
:10469000A06143F4A063C5E9031300216869AB6816
:1046A00052684068043383609360A98380E63B6866
:1046B000072B7FF4C8ADE8E54FF6FF73B9F8EE219C
:1046C0009A4208BF88F800B03FF4BDAD042389F8D2
:1046D0000030F82388F80030B5E5FF231C4F88F838
:1046E0000030B0E50422F823194F89F8002088F83B
:1046F0000030A8E5FE23164F88F80030A3E5FD231F
:10470000134F88F800309EE500366E0198080020AF
:10471000000C0140D1270008680900200008014072
:1047200000000140701200202C5000086850000862
:104730004C080020B113000891130008001002403B
:104740007C080020E11200089112000800E100E05E
:1047500084120020000000000000000000000000A3
:10476000EFF30983203383F30988002383F311884F
:10477000704700BF000000000000000000000000C3
:1047800038B52022034682F311880F4A9469A06A43
:1047900004F12805A842636206D00368A362FCF70F
:1047A000EFFCA06AA842F8D194F822303BB994F803
:1047B00021309B0703D1D4E9043213615A610F20E1
:1047C000BDE83840FDF7B4B8D0100020000000006C
:1047D00030B4012400250C4A1068916903685A60BE
:1047E00080F820408C681360906181F8205000E0D0
:1047F0001B689A68A242FBD830BC5A68C1E90032F3
:1048000011605960FBF724BDD010002000000000AB
:10481000174B1A46196841F001011960136899078E
:10482000FCD500201168124B01F0F90111605060B5
:104830005A6812F00C0FFBD159680D4A41F420114F
:104840005960196841F08071196013689B01FCD5AB
:104850001121084B0848506019605368044943F01F
:10486000020353604B6803F00C03082BFAD1704726
:1048700000100240002002400064680000000000B8
:10488000F8B540F20F13214EB468E76825686268F6
:104890001D421DD06FF48072736822601A69BAB12C
:1048A00015F0080F0CBF00211021ABB2E80748BF7C
:1048B00041F00401980748BF41F00801580748BF7C
:1048C00041F02001DB05114848BF41F0400190470D
:1048D000680601D579060CD4FA0606D5EB0604D590
:1048E00073685B690BB109489847BDE8F840FCF76D
:1048F000D7BB6FF04002736822605B683A40E260A9
:10490000002BE9D001489847E6E700BF7C0800206B
:104910002DE9F84F6C4C666FD6F80C803368DA05D9
:104920009DB200F18280202383F3118815F02F0FB0
:104930004FD0664F4FF0000A07F1080908E0A806BB
:10494000D6F804B01ED4336813F02F0F9DB240D0B8
:104950002B07F4D015F0080F0CBF00218021E807C9
:1049600048BF41F02001AA0748BF41F040016B0752
:10497000384648BF41F48071FCF72AFCA806D6F8F7
:1049800004B0E0D5636994F87850002B3CD0D4E9AA
:104990000832934240D06269591C013205EA0B0586
:1049A000626121621D70D4E907329A4201D3A36982
:1049B0002362E0684845C6D00368E360C3F804900A
:1049C000C0F824A0FCF7DCFB336813F02F0F9DB276
:1049D000BED1002383F3118818F0800F01D02A067E
:1049E00032D418F0400F0BD06B0609D5202383F387
:1049F0001188D4E911239A424BD0002383F3118804
:104A0000BDE8F84FFCF74CBB04213846FCF7E0FB4F
:104A1000D4E908329342BED16269002ABBD04FF478
:104A200080613846FCF7D4FB8DE7202383F311889F
:104A30004FF40071201DFCF7CBFB6FF48072002354
:104A4000326083F311886EE7202383F31188D4E961
:104A500011239A422AD0A26B206C591C0132A26306
:104A6000A16481421F7801D3E36BA364206B184BD0
:104A7000984206D000210268226353604162FCF72D
:104A80007FFB7760002383F3118818F0400FB7D0C5
:104A9000AAE7A36B002BB0D010210C48FCF798FBC1
:104AA0004FF6BF7308EA0303F360A6E7A26B002A80
:104AB000D1D008210548FCF78BFB4FF67F7308EA3D
:104AC0000303F360DEE700BFD0070020D407002017
:104AD00000080020000000000000000000000000AE
:104AE0002DE9F0414FF080442369E2681340DAB2C7
:104AF000D2439B07226103D4BDE8F041FCF7D0BA52
:104B0000202686F311881E4D606AB5F828C0EB692F
:104B100080B29968A0EB0C0292B28A4205F11C07A0
:104B200020D34FF000081A68586861442985026054
:104B30005060DA68C3F80C80E969B94208BFC4F86C
:104B40000C8088F311881869904786F31188606A91
:104B5000B5F828C0EB6980B29968A0EB0C0292B25C
:104B60008A42E0D2BB4204D0891A28859960FCF7BA
:104B70005FFB002383F31188BDE8F041FCF790BA96
:104B8000D010002000000000000000000000000025
:104B900008B50348FCF704FDBDE80840FCF780BAFF
:104BA0006C51000800000000000000000000000040
:104BB00008B50348FCF7F4FCBDE80840FCF770BA00
:104BC0005C51000800000000000000000000000030
:104BD00008B50348FCF7E4FCBDE80840FCF760BA00
:104BE0004C51000800000000000000000000000020
:104BF00008B50348FCF7D4FCBDE80840FCF750BA00
:104C00003C5100080000000000000000000000000F
:104C100008B50348FCF7C4FCBDE80840FCF740BAFF
:104C20002C510008000000000000000000000000FF
:104C300008B50348FCF7B4FCBDE80840FCF730BAFF
:104C40001C510008000000000000000000000000EF
:104C500008B50348FCF7A4FCBDE80840FCF720BAFF
:104C60000C510008000000000000000000000000DF
:104C700038B5174DEB6A5C6822075C6005D46307A2
:104C800016D4BDE83840FCF70BBA0422284600F8D9
:104C9000282B1A68202122F002021A6081F3118861
:104CA0000021FCF795FA002383F311886307E8D508
:104CB000EA6A2023916983F3118806480904FCF706
:104CC00087FA002383F31188BDE83840FCF7E8B980
:104CD00090070020B0070020000000000000000046
:104CE00038B5184DEB6A1C69A20705D1E30618D444
:104CF000BDE83840FCF7D4B95A69202122F01002EF
:104D00005A6181F3118805F11000FCF751FA022174
:104D100005F11800FCF75CFA002383F31188E30621
:104D2000E6D51021EA6A2023116183F31188064831
:104D3000FCF74EFA002383F31188BDE83840FCF7F6
:104D4000AFB900BF90070020B007002000000000AE
:104D500038B5184DEB6ADC68A20705D1E30618D414
:104D6000BDE83840FCF79CB95A69202122F00202C4
:104D70005A6181F3118805F11000FCF719FA01213D
:104D800005F11800FCF724FA002383F31188E306E9
:104D9000E6D51021EA6A2023D16083F31188064802
:104DA000FCF716FA002383F31188BDE83840FCF7BE
:104DB00077B900BF90070020B00700200000000076
:104DC000174B10B5DA6A936813F00104936004D0AE
:104DD00013F00C0F18BF4FF48034D90506D513F427
:104DE000406F14BF44F4003444F00204DA0306D5E3
:104DF00013F4402F14BF44F4802444F0040420230F
:104E000083F311880748FCF7D3F921460648FCF7DD
:104E1000DFF9002383F31188BDE81040FCF740B9A7
:104E20009007002098070020AC0700200000000039
:104E3000F0B40026134F144D1448154B154907F1D3
:104E4000700C984211D91A46043951F8044F42F8AF
:104E5000044B9042F9D8421ED21A22F003020432C7
:104E600013449D4203D943F8046B9D42FBD8674528
:104E700005D0D7E90413D7E906051037E1E7F0BC00
:104E8000704700BFC45300082013002020130020E7
:104E9000201300203458000800000000000000002B
:104EA000FEE700BF0000000000000000000000005E
:104EB000704700BF0000000000000000000000007C
:104EC000704700BF032A70B412D940EA0105AD074C
:104ED00004460B461DD11946204653F8045B54F88E
:104EE000046BAE4215D1043A032A20461946F2D883
:104EF000561E9AB10139441E01E0C3180BD014F8B4
:104F0000015F11F8012F331B9542F6D0A81A70BC2F
:104F10007047561EEEE7184670BC70471046F6E71D
:104F2000444D41206661696C757265006E6F6E61FB
:104F30006D650000286E756C6C2900004641554C6B
:104F400054206661756C743D2564207374617475BA
:104F5000733D257820737461747573323D25782014
:104F600030783141363D25782030783141373D2544
:104F7000782030783141383D25780D0A0000000056
:104F8000257820256420256420484150505920660A
:104F900061756C743D2564207374617475733D256F
:104FA0007820737461747573323D257820666C6166
:104FB00073683D25642025642043414E206F2F6592
:104FC0002025642025640D0A0000000069646C65DA
:104FD000000000000100020004000000070127019A
:104FE0000000000072002B00800000005004002030
:104FF000340500208C050020C00100012001800143
:10500000400100001D001300130035002C000000BB
:10501000500700200004002028040020E40600209F
:105020008C0600206400000002001C00000000004C
:1050300000000000000C01400200000055080400C0
:105040000000000000000000000000000000000060
:10505000000000000000000000C20100000000008D
:105060000000000000000000C0070020FFFFFFFF5D
:10507000000400003E000000010000003F000000AE
:1050800001000000C0070020FFFFFFFFA01F00007D
:1050900078000000040000007C0000000400000014
:1050A0000000000000000000410C0008010C000896
:1050B000210C000801290008910F0008B10F000819
:1050C000D10F0008E10F0008810F0008710F0008E0
:1050D000610F0008510F0008D10E0008C10E000832
:1050E000410F0008310F0008210F0008110F0008C0
:1050F000010F0008F10E0008E10E0008B10E0008D3
:10510000A10E0008910E0008811D00080000024059
:1051100008000240010000000000000B00000240F7
:105120001C000240020000000004010C00000240CC
:1051300030000240040000000008020D00000240A0
:105140004400024008000000000C030E0000024072
:1051500058000240100000000010040F0000024040
:105160006C00024020000000001405100000024006
:1051700080000240400000000018061104020408EC
:105180000800030708080808080808080B0F0000B3
:105190006D61696E00164430040244080C10141846
:1051A0001C2021220000000000002110422063305A
:1051B0008440A550C660E770088129914AA16BB16F
:1051C0008CC1ADD1CEE1EFF1311210027332522217
:1051D000B5529442F772D662399318837BB35AA3BF
:1051E000BDD39CC3FFF3DEE36224433420040114E7
:1051F000E664C774A44485546AA54BB5288509950F
:10520000EEE5CFF5ACC58DD55336722611163006B6
:10521000D776F6669556B4465BB77AA7199738875E
:10522000DFF7FEE79DD7BCC7C448E5588668A77876
:105230004008611802282338CCC9EDD98EE9AFF9AE
:10524000488969990AA92BB9F55AD44AB77A966A56
:10525000711A500A333A122AFDDBDCCBBFFB9EEBFE
:10526000799B588B3BBB1AABA66C877CE44CC55C26
:10527000222C033C600C411CAEED8FFDECCDCDDD4E
:105280002AAD0BBD688D499D977EB66ED55EF44EF6
:10529000133E322E511E700E9FFFBEEFDDDFFCCF9E
:1052A0001BBF3AAF599F788F8891A981CAB1EBA1F2
:1052B0000CD12DC14EF16FE18010A100C230E3206E
:1052C0000450254046706760B9839893FBA3DAB316
:1052D0003DC31CD37FE35EF3B1029012F322D232BE
:1052E0003542145277625672EAB5CBA5A8958985E6
:1052F0006EF54FE52CD50DC5E234C324A01481040E
:105300006674476424540544DBA7FAB79987B897B5
:105310005FE77EF71DC73CD7D326F2369106B0165D
:1053200057667676154634564CD96DC90EF92FE975
:10533000C899E9898AB9ABA94458654806782768AD
:10534000C018E1088238A3287DCB5CDB3FEB1EFB55
:10535000F98BD89BBBAB9ABB754A545A376A167AFD
:10536000F10AD01AB32A923A2EFD0FED6CDD4DCD25
:10537000AABD8BADE89DC98D267C076C645C454C4D
:10538000A23C832CE01CC10C1FEF3EFF5DCF7CDFF5
:105390009BAFBABFD98FF89F176E367E554E745E9D
:1053A000932EB23ED10EF01E03000000020000005A
:1053B0008000000000000000000400000000000861
:1053C00000000200345800082013002020130020A1
:1053D00020130020345800080000000000000000E6
:1053E0000000000034580008000000000000000029
:1053F0000000000034580008000000000000000019
:105400000000000034580008000000000000000008
:1054100000000000345800080000000000000000F8
:1054200000000000345800080000000000000000E8
:1054300000000000345800080000000000000000D8
:105440000000000000000000E116000821390008FB
:10545000311600082116000811180008E11500088F
:10546000D117000800000000413A0008413B000845
:10547000211C0008A11C0008111C0008911C000838
:10548000313A0008313B0008F11600080000000026
:10549000F1380008C13800087110000851100008E8
:0854A00008B3FF7F01000000CA
:1054A8000800000000000000030300000000720074
:1054B800E791D65600003900000000000000000007
:1054C80000000000000000000800000000000000CC
:1054D800000C000000002B008C21B6DC000014003A
:1054E80000000000000000000000000000000000B4
:1054F8001276576C7F9114A5D68D88C29B4FC91E12
:105508000D5C9DF92941EE2EB0973435BA93255D8F
:1055180021EEAD2A57E4B82DD3BEB9BE082F3CDA28
:105528009904DE8D19B5218E4DAEE1F3416E0E9FC3
:1055380076248BBA22443301AC6D68A31FE9975EC9
:1055480020786246E0FE026F928A839A94E1D06FD7
:105558009518AB80934FDAE1BF51D8705EF2217095
:10556800702248F7C551F1A49C32DC5A4CD854F04B
:10557800396E892376CDF55272F0028D4540EADF07
:10558800651D07ADF333506654880D213C3A0BD2A4
:10559800B3259080DE273EDF28E9957DCC8366A37E
:1055A80079782C8AE2E2411E3065F82426B730F07B
:1055B800A7CEFFF38040DDF133B4CBBFC295DEDE6A
:1055C800142E72F667052E10BCE05FBDBF212B4D6F
:1055D800BD2AB5011B76456F8D83B480F253BC0E8E
:1055E8002D8F8EA7ABE8DBE377F40F803623772F78
:1055F8007B2619BC7E00554EAA28E452CF40FD0AEE
:10560800328B03FF8E3D2E804013D095861E916508
:10561800EBDB6D78DFB2BFF4B2BEF4F1539E43E723
:1056280042E8D73DA23D6346AF030000C0009200A8
:1056380049003C0068103C00680160EA60095802B3
:105648000000000000000000000000000000000052
:105658000000000000000000000000000000000042
:105668000000000000000000000000000000000032
:105678000000000000000000000000000000000022
:105688000000000000000000000000000000000012
:105698000000000000000000000000000000000002
:1056A800000000000000000000000000C100BF0072
:1056B80040001D000000460037003C0060EA000082
:1056C80000000000000000000000000000000000D2
:1056D80000000000000000000000000000000000C2
:1056E80000000000000000000000000000000000B2
:1056F80000000000000000000000000000000000A2
:105708000000000000000000000000000000000091
:105718000000000000000000000000000000000081
:105728000000000000000000000000000000000071
:105738001E00000000001E00000000001E00000007
:1057480000001E00000000001E00000000001E00F7
:105758001E00000000001E00000000001E000000E7
:1057680000001E00000000001E00000000001E00D7
:105778000000000000000000000000000000000021
:1057880000000100000000000000000063008C0120
:10579800000810044100980000000000000000000C
:1057A80000000000000000000000000000000000F1
:1057B800000000004100410041000000040000100A
:1057C80000000000000000000000000000000000D1
:1057D80003030C0C30000000000000000000000073
:1057E80000000000000000000000000000000000B1
:1057F8000300FE130000001E00000000010000006E
:105808001F00000000000000000000000100000070
:105818000000000000000000000000000000000080
:0C58280000000000000000000000000074
:0400000508000249A4
:00000001FF
